:1000000050EF02F0202020544343204C75766120AD
:10001000525600000A205825334C64205925334C91
:1000200064205A25334C64005825334C64205925EC
:10003000334C64205A25334C6420426E744F6666FC
:100040000D0A0000202020544343204C7576612087
:10005000525600000A20202020426F74616F204F0A
:100060006E20202020005825334C64205925334C25
:1000700064205A25334C6420426E744F6E0D0A0082
:100080000C202020544343204C75766120525600AA
:100090000A2020205049432031384634353530007D
:1000A0000C202020544343204C757661205256008A
:1000B0000A20583D303020593D3030205A3D3030F4
:1000C0002000EA6A360EE96EEF500DE0020E016E76
:1000D000006A002EFED7012EFBD7970E006E002E71
:1000E000FED7EF2EF3D71200956A3BC08CFF969295
:1000F0008D8296928D921200956A8C6A96908D9060
:1001000096928D920F0E366EDCDF010E2C6E2C5007
:10011000030808E3300E3B6EE7DF050E366ED1DFD5
:100120002C2AF5D7380E3B6EDFDF010E3B6EDCDF8D
:10013000010E366EC6DF0C0E3B6ED6DF060E3B6E32
:10014000D3DF77EF02F096908D90395202E18D90D7
:1001500001D08D809690420E006E002EFED70000DA
:1001600096928D923AC03BF0BFDF1200372C01D03F
:1001700003D0C00E386E02D0800E386E010E365C91
:100180003826396A38C03AF0DEDFE9EF00F0355042
:100190000C0A07E0060A0DE0070A0BE0050A0FE06B
:1001A00013D0396A010E3A6ECEDF020E366E89DF49
:1001B00010D0010E366E020E376ED8D70AD0396ACB
:1001C000100E3A6EC0DF05D0010E396E35C03AF020
:1001D000BADF12000900F5520CE0F6CF2CF0F7CF91
:1001E0002DF0F5CF35F0D3DF2CC0F6FF2DC0F7FF93
:1001F000F1D71200800EF66E000EF76EEBDF900E58
:10020000F66E000EF76EE6DF080E2C6EFA0E366EF6
:1002100058DF2C2EFBD7010E366E53DF0C0E356ED9
:10022000B6DFA00EF66E000EF76ED4DFB00EF66EDF
:10023000000EF76ECFDF080E2C6EFA0E366E41DF21
:100240002C2EFBD77BEF02F0016A026A006A036A78
:100250002F5002E12E5018E0100E306ED8902C3640
:100260002D36003603362F50035C02E12E50005C21
:1002700007E32E50005ED8A003062F50035ED880FF
:1002800001360236302EEAD712000900F6CF2DF0E3
:10029000F7CF2EF0F5CF35F07ADF2DC0F6FF2EC068
:1002A000F7FF2C2EF2D743EF03F0EACF34F0E9CF7B
:1002B00033F02DAE08D0338E33A8332A2C1E2D1EDA
:1002C0002C2AD8B42D2A2D38F0092F6E2F26E20FB4
:1002D000306E320F326E2D500F0B30263026322604
:1002E000E90F316E312631262C380F0B312632269C
:1002F00031363236321E32362C500F0B32262F3624
:10030000070E2E6E0A0E31063226FDE33006312628
:10031000FDE32F063026FDE32E062F26FDE3EA6AD5
:100320002E0EE96E070E3314339CED52331407E1A1
:1003300033B8EE5233B803D0200E006E20D0E92639
:10034000000EEA22E950320803E1EA5201E1338C5F
:10035000EF50006E08E133BC06D033B81BD033B683
:1003600002D0200E0BD033AE06D02D0E006EED5015
:10037000339C339E04D033863398300E0026EACF68
:100380002DF0E9CF2CF000C035F001DF2DC0EAFFE1
:100390002CC0E9FFEE5033ACD5D71200EACF34F0D1
:1003A000E9CF33F02DAE08D0338E33A8332A2C1E7C
:1003B0002D1E2C2AD8B42D2A2D38F0092F6E2F2669
:1003C000E20F306E320F326E2D500F0B302630267A
:1003D0003226E90F316E312631262C380F0B3126AB
:1003E000322631363236321E32362C500F0B322640
:1003F0002F36070E2E6E0A0E31063226FDE330062A
:100400003126FDE32F063026FDE32E062F26FDE3E1
:10041000EA6A2E0EE96E070E3314339CED52331444
:1004200007E133B8EE5233B803D0200E006E20D06F
:10043000E926000EEA22E950320803E1EA5201E11E
:10044000338CEF50006E08E133BC06D033B814D0C3
:1004500033B602D0200E0BD033AE06D02D0E006E78
:10046000ED50339C339E04D033863398300E0026F3
:1004700000509EA8FED7AD6EEE5033ACDCD7120014
:100480000900F6CF2DF0F7CF2EF0F5509EA8FED73D
:10049000AD6E2DC0F6FF2EC0F7FF2C2EF1D7120047
:1004A000F86AD09EB8960C0EAF6EA20EAC6E900E8F
:1004B000AB6EC150C00B0F09C16E070EB46E010EBA
:1004C000936E070E926E066A056A086A076A0A6AE0
:1004D000096A0C6A0B6A0D6AC150C00B0B09C16E28
:1004E000C050C00B0709C06EC08EC28005D6C80EB2
:1004F000366EE7DD7FD6200E006E002EFED700D0D0
:1005000000000D6A0D50040858E3000E016EC25041
:10051000C30B0110C26E200E006E002EFED700D05D
:100520000000D8900D34036A0E0FE96E000E032010
:10053000EA6EC282C2B2FED7C3CFEFFFC4CFECFFD8
:10054000040E016EC250C30B0110C26E200E006E6D
:10055000002EFED700D00000D8900D34036A180F8B
:10056000E96E000E0320EA6EC282C2B2FED7C3CF8C
:10057000EFFFC4CFECFF080E016EC250C30B011099
:10058000C26E200E006E002EFED700D00000D89064
:100590000D34036A220FE96E000E0320EA6EC28258
:1005A000C2B2FED7C3CFEFFFC4CFECFF420E006E46
:1005B000002EFED700000D2AA5D70D6A0D500408A5
:1005C000D8A0B7D0D8900D34036A0E0FE96E000E94
:1005D0000320EA6EECCF03F0ED52EF5005260350F6
:1005E0000622D8900D34036A180FE96E000E03201E
:1005F000EA6EECCF03F0ED52EF50072603500822CD
:10060000D8900D34036A220FE96E000E0320EA6EC3
:10061000ECCF03F0ED52EF50092603500A220D50A3
:100620000408D8A484D006C02DF005C02CF02F6A91
:10063000050E2E6E09DE02C006F001C005F008C0EE
:100640002DF007C02CF02F6A050E2E6EFDDD02C0C6
:1006500008F001C007F00AC02DF009C02CF02F6A85
:10066000050E2E6EF1DD02C00AF001C009F0040E85
:10067000F66E000EF76EAEDD140EF66E000EF76E1F
:10068000030E2C6E02D6030EE96E06C02DF005C0D7
:100690002CF00BDE200E356E7ADD590E356E77DDCF
:1006A000030EE96E08C02DF007C02CF0FEDD200E11
:1006B000356E6DDD5A0E356E6ADD030EE96E0AC0C9
:1006C0002DF009C02CF0F1DD580E9EA8FED7AD6EBE
:1006D000030EE96E06C02DF005C02CF05FDE200E83
:1006E0009EA8FED7AD6E590E9EA8FED7AD6E030E26
:1006F000E96E08C02DF007C02CF050DE200E9EA839
:10070000FED7AD6E5A0E9EA8FED7AD6E030EE96EF3
:100710000AC02DF009C02CF041DE390EF66E000E35
:10072000F76E090E2C6EACDE640E366ECADC0D2A36
:1007300045D7938081A040D0440EF66E000EF76E30
:1007400049DD540EF66E000EF76E44DD580E9EA87D
:10075000FED7AD6E030EE96E06C02DF005C02CF07D
:100760001DDE200E9EA8FED7AD6E590E9EA8FED7A8
:10077000AD6E030EE96E08C02DF007C02CF00EDE42
:10078000200E9EA8FED7AD6E5A0E9EA8FED7AD6E67
:10079000030EE96E0AC02DF009C02CF0FFDD770EC4
:1007A000F66E000EF76E080E2C6E6ADE0C6A010EF5
:1007B0000B6E938081B0C0D70C6A0B6A0CC00AF034
:1007C0000BC009F00AC008F009C007F008C006F025
:0807D00007C005F090D60300FC
:020000040030CA
:0E00000039CC3F1E0087A1000FC00FE00F405B
:00000001FF
;PIC18F4550
;CRC=262F  CREATED="13-jun-16 23:18"
